:020000040800F2
:100000000050002089140008D1140008D114000801
:10001000D1140008D1140008D11400080000000019
:10002000000000000000000000000000D1140008E3
:10003000D114000800000000D1140008D1140008F9
:10004000D1140008D1140008D1140008D1140008FC
:10005000D1140008D1140008D1140008D1140008EC
:10006000D1140008D1140008D1140008D1140008DC
:10007000D1140008D1140008D1140008D1140008CC
:10008000D1140008D1140008D1140008D1140008BC
:10009000D1140008D1140008D1140008D1140008AC
:1000A000D1140008D1140008D1140008D11400089C
:1000B000D1140008D1140008D1140008D11400088C
:1000C000D1140008D1140008D1140008D11400087C
:1000D000D1140008D1140008D1140008D11400086C
:1000E000D1140008D1140008D11400080000000049
:1000F0000000000000000000000000000000000000
:0C01000000000000000000005FF808F1A3
:1001100010B5054C237833B9044B13B10448AFF341
:1001200000800123237010BDC009002000000000E2
:100130002456000808B5034B1BB103490348AFF32D
:10014000008008BD00000000C409002024560008FB
:10015000844641EA000313F0030349D1403A23D314
:100160000B6803604B6843608B688360CB68C36037
:100170000B6903614B6943618B698361CB69C3611F
:100180000B6A03624B6A43628B6A8362CB6AC36207
:100190000B6B03634B6B43638B6B8363CB6BC363EF
:1001A00040304031403ADBD230320BD30B68036031
:1001B0004B6843608B688360CB68C360103010313C
:1001C000103AF3D20C3205D351F8043B40F8043B0B
:1001D000043AF9D2043208D0D2071CBF11F8013B0F
:1001E00000F8013B01D30B8803806046704700BFD5
:1001F000082A13D38B07B1D010F00303AED0C3F19C
:100200000403D21ADB071CBF11F8013B00F8013BC5
:10021000A4D331F8023B20F8023B9FE7043AD9D33C
:10022000013A11F8013B00F8013BF9D20B78037059
:100230004B7843708B7883706046704781F0004143
:1002400002E000BF83F0004330B54FEA41044FEABB
:10025000430594EA050F08BF90EA020F1FBF54EA56
:10026000000C55EA020C7FEA645C7FEA655C00F0F2
:10027000E2804FEA5454D4EB5555B8BF6D420CDDC3
:100280002C4480EA020281EA030382EA000083EA46
:10029000010180EA020281EA0303362D88BF30BDE6
:1002A00011F0004F4FEA01314FF4801C4CEA11313C
:1002B00002D0404261EB410113F0004F4FEA03339B
:1002C0004CEA133302D0524263EB430394EA050F26
:1002D00000F0A780A4F10104D5F1200E0DDB02FA95
:1002E0000EFC22FA05F2801841F1000103FA0EF229
:1002F000801843FA05F359410EE0A5F120050EF1EF
:10030000200E012A03FA0EFC28BF4CF0020C43FA1F
:1003100005F3C01851EBE37101F0004507D54FF02C
:10032000000EDCF1000C7EEB00006EEB0101B1F57C
:10033000801F1BD3B1F5001F0CD349085FEA3000C2
:100340004FEA3C0C04F101044FEA445212F5800FCD
:1003500080F09A80BCF1004F08BF5FEA500C50F16A
:10036000000041EB045141EA050130BD5FEA4C0C4D
:10037000404141EB010111F4801FA4F10104E9D1D6
:1003800091F0000F04BF01460020B1FA81F308BFCD
:100390002033A3F10B03B3F120020CDA0C3208DD99
:1003A00002F1140CC2F10C0201FA0CF021FA02F174
:1003B0000CE002F11402D8BFC2F1200C01FA02F1E4
:1003C00020FA0CFCDCBF41EA0C019040E41AA2BF09
:1003D00001EB0451294330BD6FEA04041F3C1CDAD1
:1003E0000C340EDC04F11404C4F1200220FA04F0F1
:1003F00001FA02F340EA030021FA04F345EA03019B
:1004000030BDC4F10C04C4F1200220FA02F001FA5C
:1004100004F340EA0300294630BD21FA04F02946DE
:1004200030BD94F0000F83F4801306BF81F4801177
:100430000134013D4EE77FEA645C18BF7FEA655CEA
:1004400029D094EA050F08BF90EA020F05D054EABC
:10045000000C04BF1946104630BD91EA030F1EBFC1
:100460000021002030BD5FEA545C05D140004941C5
:1004700028BF41F0004130BD14F580043CBF01F5B8
:10048000801130BD01F0004545F0FE4141F470019E
:100490004FF0000030BD7FEA645C1ABF1946104679
:1004A0007FEA655C1CBF0B46024650EA013406BF7A
:1004B00052EA033591EA030F41F4002130BD00BF39
:1004C00090F0000F04BF0021704730B54FF48064F6
:1004D00004F132044FF000054FF0000150E700BF77
:1004E00090F0000F04BF0021704730B54FF48064D6
:1004F00004F1320410F0004548BF40424FF00001C3
:100500003EE700BF42004FEAE2014FEA31014FEA05
:1005100002701FBF12F07F4393F07F4F81F0605154
:10052000704732F07F4208BF704793F07F4F04BF9F
:1005300041F40021704730B54FF4607401F000457C
:1005400021F000411CE700BF50EA010208BF7047DC
:1005500030B54FF000050AE050EA010208BF7047CD
:1005600030B511F0004502D5404261EB41014FF436
:10057000806404F132045FEA915C3FF4D8AE4FF03E
:1005800003025FEADC0C18BF03325FEADC0C18BF21
:10059000033202EBDC02C2F1200300FA03FC20FA72
:1005A00002F001FA03FE40EA0E0021FA02F11444BF
:1005B000BDE600BF70B54FF0FF0C4CF4E06C1CEAD8
:1005C00011541DBF1CEA135594EA0C0F95EA0C0F49
:1005D00000F0DEF82C4481EA030621EA4C5123EABC
:1005E0004C5350EA013518BF52EA033541F48011EB
:1005F00043F4801338D0A0FB02CE4FF00005E1FB9E
:1006000002E506F00042E0FB03E54FF00006E1FBE7
:1006100003569CF0000F18BF4EF0010EA4F1FF042A
:10062000B6F5007F64F5407404D25FEA4E0E6D416A
:1006300046EB060642EAC62141EA55514FEAC5207B
:1006400040EA5E504FEACE2EB4F1FD0C88BFBCF5F7
:10065000E06F1ED8BEF1004F08BF5FEA500E50F1A8
:10066000000041EB045170BD06F0004646EA01016E
:1006700040EA020081EA0301B4EB5C04C2BFD4EBA0
:100680000C0541EA045170BD41F480114FF0000E99
:10069000013C00F3AB8014F1360FDEBF002001F007
:1006A000004170BDC4F10004203C35DA0C341BDC81
:1006B00004F11404C4F1200500FA05F320FA04F053
:1006C00001FA05F240EA020001F0004221F0004187
:1006D00010EBD37021FA04F642EB06015EEA430EFA
:1006E00008BF20EAD37070BDC4F10C04C4F120052A
:1006F00000FA04F320FA05F001FA04F240EA0200DD
:1007000001F0004110EBD37041F100015EEA430EAD
:1007100008BF20EAD37070BDC4F1200500FA05F2CD
:100720004EEA020E20FA04F301FA05F243EA02034C
:1007300021FA04F001F0004121FA04F220EA02005B
:1007400000EBD3705EEA430E08BF20EAD37070BDA1
:1007500094F0000F0FD101F00046400041EB010181
:1007600011F4801F08BF013CF7D041EA060195F063
:10077000000F18BF704703F00046520043EB03031D
:1007800013F4801F08BF013DF7D043EA060370470A
:1007900094EA0C0F0CEA135518BF95EA0C0F0CD015
:1007A00050EA410618BF52EA4306D1D181EA03015B
:1007B00001F000414FF0000070BD50EA410606BF55
:1007C0001046194652EA430619D094EA0C0F02D19A
:1007D00050EA013613D195EA0C0F05D152EA0336DF
:1007E0001CBF104619460AD181EA030101F00041FD
:1007F00041F0FE4141F470014FF0000070BD41F046
:10080000FE4141F4780170BD70B54FF0FF0C4CF41F
:10081000E06C1CEA11541DBF1CEA135594EA0C0F3E
:1008200095EA0C0F00F0A7F8A4EB050481EA030E8B
:1008300052EA03354FEA013100F088804FEA033372
:100840004FF0805545EA131343EA12634FEA022240
:1008500045EA111545EA10654FEA00260EF0004101
:100860009D4208BF964244F1FD0404F5407402D253
:100870005B084FEA3202B61A65EB03055B084FEAE4
:1008800032024FF480104FF4002CB6EB020E75EBE1
:10089000030E22BFB61A754640EA0C005B084FEA09
:1008A0003202B6EB020E75EB030E22BFB61A754686
:1008B00040EA5C005B084FEA3202B6EB020E75EBD1
:1008C000030E22BFB61A754640EA9C005B084FEA49
:1008D0003202B6EB020E75EB030E22BFB61A754656
:1008E00040EADC0055EA060E18D04FEA051545EA45
:1008F00016754FEA06164FEAC30343EA52734FEAEE
:10090000C2025FEA1C1CC0D111F4801F0BD141EA66
:1009100000014FF000004FF0004CB6E711F4801FCB
:1009200004BF01430020B4F1FD0C88BFBCF5E06FAB
:100930003FF6AFAEB5EB030C04BFB6EB020C5FEABB
:10094000500C50F1000041EB045170BD0EF0004E10
:100950004EEA113114EB5C04C2BFD4EB0C0541EA42
:10096000045170BD41F480114FF0000E013C90E63F
:1009700045EA060E8DE60CEA135594EA0C0F08BF03
:1009800095EA0C0F3FF43BAF94EA0C0F0AD150EA02
:1009900001347FF434AF95EA0C0F7FF425AF104695
:1009A00019462CE795EA0C0F06D152EA03353FF4BD
:1009B000FDAE1046194622E750EA410618BF52EA3A
:1009C00043067FF4C5AE50EA41047FF40DAF52EA0E
:1009D00043057FF4EBAE12E74FF0FF3C06E000BFAB
:1009E0004FF0010C02E000BF4FF0010C4DF804CDB8
:1009F0004FEA410C7FEA6C5C4FEA430C18BF7FEA78
:100A00006C5C1BD001B050EA410C0CBF52EA430CA5
:100A100091EA030F02BF90EA020F0020704710F125
:100A2000000F91EA030F58BF994208BF90422CBFB4
:100A3000D8176FEAE37040F0010070474FEA410CAD
:100A40007FEA6C5C02D150EA013C07D14FEA430CCB
:100A50007FEA6C5CD6D152EA033CD3D05DF8040B3C
:100A6000704700BF8446104662468C46194663466E
:100A700000E000BF01B5FFF7B7FF002848BF10F145
:100A8000000F01BD4DF808EDFFF7F4FF0CBF01208A
:100A900000205DF808FB00BF4DF808EDFFF7EAFF06
:100AA00034BF012000205DF808FB00BF4DF808EDC1
:100AB000FFF7E0FF94BF012000205DF808FB00BFB6
:100AC0004DF808EDFFF7CEFF94BF012000205DF840
:100AD00008FB00BF4DF808EDFFF7C4FF34BF01204D
:100AE00000205DF808FB00BF4FEA410C7FEA6C5C18
:100AF00002D150EA013C0AD14FEA430C7FEA6C5C18
:100B000002D152EA033C02D14FF0000070474FF08F
:100B1000010070474FEA410212F5001215D211D5BB
:100B20006FF47873B3EB625212D94FEAC12343F0EA
:100B3000004343EA505311F0004F23FA02F018BF6C
:100B4000404270474FF00000704750EA013005D135
:100B500011F0004008BF6FF0004070474FF00000F8
:100B6000704700BF53B94AB9002908BF00281CBF0D
:100B70004FF0FF314FF0FF3000F074B9ADF1080CC9
:100B80006DE904CE00F006F8DDF804E0DDE90223AB
:100B900004B070472DE9F0478C460446089E002BB0
:100BA0004BD18A42154667D9B2FA82F24AB1C2F1F4
:100BB000200701FA02F320FA07F7954047EA030CF1
:100BC00094404FEA154EBCFBFEF71FFA85F80EFB6A
:100BD00017C307FB08F9210C41EA0343994509D9DA
:100BE000EB1807F1FF3180F01C81994540F2198123
:100BF000023F2B44A3EB0903B3FBFEF00EFB1033C3
:100C000000FB08F1A4B244EA0344A14209D92C191B
:100C100000F1FF3380F00781A14240F204810238E5
:100C20002C4440EA07400027641A1EB10023D44038
:100C3000C6E900433946BDE8F0878B4209D9002E4A
:100C400000F0EC800027C6E9000138463946BDE8CF
:100C5000F087B3FA83F7002F48D18B4202D3824248
:100C600000F2FB80841A61EB030301209C46002EF6
:100C7000E0D0C6E9004CDDE702B9FFDEB2FA82F24D
:100C8000002A40F08F800127491B4FEA15481FFAC0
:100C900085F9B1FBF8FE08FB1E1109FB0EF04FEAC7
:100CA000144C4CEA0143984207D9EB180EF1FF317E
:100CB00002D2984200F2CD808E461B1AB3FBF8F0A8
:100CC00008FB103309FB00F9A4B244EA0344A14530
:100CD00007D92C1900F1FF3302D2A14500F2B680EA
:100CE0001846A4EB090440EA0E409EE7C7F1200530
:100CF000BB4022FA05FC4CEA030C21FA05F44FEA4A
:100D00001C4EB4FBFEF91FFA8CF80EFB194420FAB6
:100D100005F3B94009FB08FA19430B0C43EA0444F4
:100D2000A24502FA07F200FA07F30BD91CEB040400
:100D300009F1FF3080F08880A24540F28580A9F15A
:100D400002096444A4EB0A04B4FBFEF00EFB104459
:100D500000FB08FA89B241EA0444A24508D91CEB19
:100D6000040400F1FF316BD2A24569D90238644412
:100D700040EA0940A0FB0289A4EB0A044C45414625
:100D8000CE4654D351D0002E69D05A1A64EB0E04CB
:100D900004FA05F522FA07F3FC401D43C6E90054A6
:100DA000002747E79540C2F1200321FA03F04FEAFC
:100DB0001548B0FBF8F71FFA85F908FB170024FA6D
:100DC00003F3914007FB09FC0B43190C41EA004176
:100DD0008C4504FA02F407D9691807F1FF3031D2C3
:100DE0008C452FD9023F2944A1EB0C01B1FBF8F04F
:100DF00008FB101C00FB09FE99B241EA0C418E452C
:100E000007D9691800F1FF3318D28E4516D9023878
:100E10002944A1EB0E0140EA07473AE7374630463E
:100E200008E70F46E6E61846FBE64345ABD2B8EBCB
:100E3000020169EB0C0201389646A4E71846E8E780
:100E4000084695E70746CFE781467BE702382C4402
:100E500047E7AEF1020E2B442FE7384607E7374647
:100E6000E8E600BF704700BF80B483B000AF314BED
:100E7000DB69304A43F40013D3612E4B9B692D4A42
:100E800043F0090393612C4B1B889BB22A4A23F041
:100E900001039BB21380294B1B68284A43F07F4310
:100EA0001360254B1B889BB2234A6FEA43436FEACA
:100EB00053439BB2138000237B6002E07B680133C5
:100EC0007B607B68B3F5FA7FF8D31B4B1B889BB222
:100ED000194AC3F30E039BB21380174B1B889BB2B6
:100EE000154A23F001039BB21380134B9B889BB2DE
:100EF000114A43F020039BB293800F4B9B8B9BB214
:100F00000D4A43F0A0039BB293830B4B1B8C9BB207
:100F1000094A43F021039BB21384074B1B889BB201
:100F2000054A43F001039BB2138000BF0C37BD4656
:100F300080BC70470010024000540040000C01408B
:100F400080B400AF00BF0D4B1B8B9BB203F00203BC
:100F5000002BF8D1094B1B889BB2084A43F48073DD
:100F60009BB2138000BF054B9B8A9BB203F0010329
:100F7000002BF8D000BFBD4680BC70470054004035
:100F800080B483B000AF084B1B889BB2064A43F481
:100F900000739BB21380044B9B8AFB8000BF0C370D
:100FA000BD4680BC704700BF0054004080B485B08F
:100FB00000AF0346FB710C4BFA7992B21A8200BF64
:100FC000094B9B8A9BB203F00203002BF8D0064B1F
:100FD0009B8A9AB2044B1B8B9BB21343FB8100BFCD
:100FE0001437BD4680BC70470054004080B483B0C5
:100FF00000AF0346FB7100BF0B4B9B8A9BB203F013
:101000008003002BF8D0084BFA7992B21A8200BF05
:10101000054B9B8A9BB203F00403002BF8D000BF62
:101020000C37BD4680BC70470054004080B483B08C
:1010300000AF00BF084B9B8A9BB203F04003002B1C
:10104000F8D0054B1B8A9BB2FB71FB7918460C3715
:10105000BD4680BC704700BF0054004080B582B0E0
:1010600000AF0346FB71FFF76BFF0F4800F09AF8E3
:101070000A2000F07FF80D2000F07CF8D020FFF768
:1010800095FF0A4800F08EF80A2000F073F80D2052
:1010900000F070F8FB791846FFF7A8FFFFF770FF24
:1010A00000BF0837BD4680BD405600084C560008BA
:1010B00080B582B000AF154B9B8A9BB2134A23F4D4
:1010C00080639BB29382FFF73BFFD120FFF76EFF57
:1010D0000F4800F067F80A2000F04CF80D2000F0EF
:1010E00049F8FFF7A3FF0346FB710A4800F05AF8DE
:1010F0000A2000F03FF80D2000F03CF8FFF740FF19
:10110000FB7918460837BD4680BD00BF005400403B
:10111000605600088456000880B400AF124B9B69EB
:10112000114A43F4804343F0040393610F4B5B681F
:101130000E4A43F47F6353600D4B9B899BB20C4A6C
:1011400043F00C039BB29381094B40F22B221A818E
:10115000074B9B899BB2064A43F400539BB2938191
:1011600000BFBD4680BC704700100240000801402F
:101170000038014080B483B000AF0346FB71084BD8
:10118000FA7992B29A8000BF054B1B889BB203F09C
:101190004003002BF8D000BF0C37BD4680BC704721
:1011A0000038014080B582B000AF786007E07B680E
:1011B0001B781846FFF7DEFF7B6801337B607B6896
:1011C0001B78002BF3D100BF0837BD4680BD00005F
:1011D00080B586B000AF00F08FF8FFF79DFFFFF7F6
:1011E00043FE1248FFF7DEFF0A20FFF7C3FF0D2082
:1011F000FFF7C0FF7520FFF731FFFFF759FF0346E8
:10120000FB75FA7D3B460A49184600F0D7F90948B4
:10121000FFF7C8FF3B461846FFF7C4FF0A20FFF759
:10122000A9FF0D20FFF7A6FFFEE700BF90560008BC
:10123000A0560008A456000880B584B000AF7860BE
:10124000114B1B68002B02D10F4B104A1A600E4B3A
:101250001B68FB600C4B1A687B6813446A46934218
:1012600007D900F037F902460C2313604FF0FF3323
:1012700006E0054B1A687B681344034A1360FB6859
:1012800018461037BD4680BDE0090020400A002006
:1012900080B500AF154B1B68144A43F0010313607F
:1012A000124B5A681149124B13404B600F4B1B688D
:1012B0000E4A23F0847323F4803313600B4B1B68B6
:1012C0000A4A23F480231360084B5B68074A23F41F
:1012D000FE035360054B4FF41F029A6000F078F84C
:1012E000044B4FF000629A6000BF80BD00100240C6
:1012F0000000FFF800ED00E080B485B000AF0023EF
:10130000FB600023BB6000237B602C4B5B6803F019
:101310000C03FB60FB68042B07D0082B09D0002BC3
:1013200033D1274B274A1A6033E0254B254A1A60F0
:101330002FE0224B5B6803F47013BB601F4B5B68AC
:1013400003F480337B60BB689B0C0233BB607B681B
:10135000002B06D1BB681C4A02FB03F3184A13603A
:1013600017E0164B5B6803F40033002B06D0BB6814
:10137000154A02FB03F3124A13600AE0BB68114AE4
:1013800002FB03F30E4A136003E00D4B0D4A1A6093
:1013900000BF0A4B5B681B0903F00F030B4AD35CC9
:1013A000DBB2FB60064B1A68FB6822FA03F3044ABF
:1013B000136000BF1437BD4680BC70470010024068
:1013C0000000002000127A0000093D000400002007
:1013D00080B483B000AF00237B6000233B60284BC8
:1013E0005B68274A23F474135360254B5B68244AD7
:1013F00043F460135360234B1B68224A43F01003ED
:101400001360204B1B681F4A23F0070313601D4B1A
:101410001B681C4A43F002031360194B184A5B68AF
:101420005360174B164A5B685360154B5B68144A50
:1014300043F480635360124B1B68114A43F080737E
:10144000136000BF0E4B1B6803F00073002BF9D034
:101450000B4B5B680A4A23F003035360084B5B683D
:10146000074A43F00203536000BF054B5B6803F07B
:101470000C03082BF9D100BF0C37BD4680BC704768
:101480000010024000200240002103E00B4B5B589B
:10149000435004310A480B4B42189A42F6D30A4A89
:1014A00002E0002342F8043B084B9A42F9D3FFF7CD
:1014B000EFFE00F015F8FFF78BFE70475C5900084F
:1014C00000000020C0090020C0090020400A0020C0
:1014D000FEE70000014B1868704700BF14000020B1
:1014E00070B50D4E0D4D761BB61006D0002401349C
:1014F00055F8043B9847A642F9D1094E094D04F02E
:1015000091F8761BB61006D00024013455F8043B40
:101510009847A642F9D170BD5059000850590008AB
:101520005859000850590008F0B4860743D0541E9B
:10153000002A3ED0CAB2034602E014F1FF3438D389
:1015400003F8012B9D07F8D1032C2BD9CDB245EA26
:1015500005250F2C45EA054516D9A4F110073F09CA
:1015600003F1200606EB071603F1100242E90455C9
:1015700042E902551032B242F8D104F00F040137AB
:10158000032C03EB07130DD91E462246043A032A07
:1015900046F8045BFAD8221F22F0030204321344F7
:1015A00004F003042CB1C9B21C4403F8011B9C4293
:1015B000FBD1F0BC704714460346C5E70EB40346A2
:1015C00030B56FF000449CB01FA951F8042B0A48B5
:1015D0000A4D0293069301910B46006802A90794F5
:1015E000CDE9044500F00CF80022029B1A701CB0F3
:1015F000BDE8304003B07047140000200802FFFF30
:101600002DE9F04FD9B00C460A9193460D930790FF
:1016100002F010FE036818461D9303F055FCA389E1
:101620001C901F0603D52369002B00F0568700236A
:101630005E46189314931793CDE92D331B93CDE990
:101640001F3321931E930993CDE919332FAB2C93AC
:1016500099463378002B00F09081252B344602D137
:101660001AE0252B03D014F8013F002BF9D1A51B5C
:1016700075B1DDE92D3201332A44072BC9E9006534
:10168000CDE92D327CDC09F10809099B2B44099333
:101690002378002B00F0718100234FF0FF3A984629
:1016A0002B2567780B938DF8933004F1010B0BF128
:1016B000010BA7F120035A2B00F2D083DFE813F0CF
:1016C0008C03CE03CE038703CE03CE03CE03680381
:1016D000CE03CE035B035603CE0351033703CE0381
:1016E0008601B500B500B500B500B500B500B50080
:1016F000B500B500CE03CE03CE03CE03CE03CE039A
:10170000CE03B002CE038B012103B002B002B002BF
:10171000CE03CE03CE03CE031C03CE03CE03840040
:10172000CE03CE03CE03F502CE03AD03CE03CE032C
:101730009703CE03CE03CE03CE03CE03CE03CE0358
:10174000CE03B002CE038B01C400B002B002B002DF
:10175000C103C4005B00CE036901CE0342018600D1
:1017600076015B00CE03F5025D001301CE03CE03CC
:101770002201CE035D0048F020089BF8007096E738
:101780002CAA0A99079803F0FFFB80B90DF1BC0958
:101790007BE72CAA5946504603F0F6FB002801F0DF
:1017A000C380109B1BB11099079802F04FFC0A9B55
:1017B0009B8913F0400F099B18BF4FF0FF3309932B
:1017C000099859B0BDE8F08F48F0100818F0200FC4
:1017D00000F06E850D9C073424F0070303F1080226
:1017E0000D92D3E90045002228F480630021BAF16C
:1017F000FF3F8DF8931058A9089100F06F8454EAC8
:10180000050123F0800845D1BAF1000F40F092871E
:10181000002A40F01B8513F001030C9300F07A8539
:10182000302358AE06F8013D49E30022A7F130030A
:101830001BF8017B02EB820203EB4202A7F13003AB
:10184000092BF5D90B9234E743469E0640F15E82A0
:101850000D9C073424F00704D4E9000104F10802C8
:101860000D4604460D92002871F1000205DA2D2282
:10187000644265EB45058DF8932058AABAF1FF3F05
:10188000089200F0F48654EA05014FF0010223F0BB
:101890008008B9D0012A00F02584022A00F0FC82D9
:1018A00058A900E03146E20842EA4572E80804F02F
:1018B000070305461446303354EA050201F8013C9B
:1018C00001F1FF36EED118F0010F00F0F582302B58
:1018D00000F0F2823023089A0239521A06F8013CCD
:1018E0000C920E46EBE243469E0640F19B820D9C15
:1018F000073424F0070202F10801D2E900450D91F6
:10190000012273E7A44B18F0200F1B9300F075829F
:101910000D9C073424F0070303F108020D92D3E96C
:10192000004518F0010F09D054EA050306D0302312
:101930008DF8957048F002088DF89430022228F452
:10194000806353E70D9A18F0200F52F8043B0D9274
:1019500040F0078518F0100F40F0408718F0400F56
:1019600040F0F18718F4007F00F038875E46099A4E
:101970001A703378002B7FF470AE2E9B002B3FF44F
:1019800016AF0A9C07982CAA214603F0FDFAA389FA
:101990000FE79BF800706C2F03BF9BF8017048F0B5
:1019A00020080BF1010B48F0100880E647F63002E2
:1019B0000D99ADF894200A1D0D92774A0C681B9280
:1019C00048F002030025022278270FE748F080083C
:1019D0009BF800706BE6002301200D9C1A462168DD
:1019E0008DF8933010939A461393CDE91533231D48
:1019F00008900C908DF8FC100D933FAE18F0020388
:101A00000E9302D0089B0233089318F084032E9C97
:101A100011933FD10B9B08995D1A002D3ADD102DD3
:101A20002D9A29DD49462046B14610232297079C6E
:101A30000A9E04E0103D102D01F1080118DD01326D
:101A4000564F1030072ACDE92D20C1E90073F1DD92
:101A50002CAA31462046129303F096FA00287FF410
:101A6000A0AEDDE92D20103D102D2FA9129BE6DC44
:101A70004E4604468946229F0132484B2C44072A91
:101A8000CDE92D24C9E9003500F367859DF8932041
:101A900009F1080972B101202D9A044402440DF1A4
:101AA0009301072ACDE92D24C9E9001000F326830C
:101AB00009F108090E9B6BB102212D9B0C440133E7
:101AC00025AA072BCDE92D34C9E9002100F3228393
:101AD00009F10809119B802B00F059820C9BAAEB9D
:101AE0000305002D36DD102D2D9A40F35B862C4B1F
:101AF00049462046B1464FF0100A0A9E1C4604E0B3
:101B0000103D102D01F1080115DD01321030072ABA
:101B1000CDE92D20C1E9004AF2DD2CAA3146079813
:101B200003F032FA00287FF43CAEDDE92D20103DB1
:101B3000102D2FA9E9DC4E46234689460446013282
:101B40002C44072ACDE92D24C9E9003500F326836A
:101B500009F1080918F4807F40F0BE812D9B0C9A92
:101B600001331444072B2E94C9E900622D9300F32E
:101B7000098309F1080918F0040F3AD00B9B089A61
:101B80009D1A002D35DD102D2D9B28DD1026079F79
:101B9000DDF828800BE000BFD45600080857000885
:101BA00018570008103D102D09F1080917DD013301
:101BB000B44A1034072BCDE92D34C9E90026F1DDF4
:101BC0002CAA4146384603F0DFF900287FF4E9AD3E
:101BD000DDE92D34103D102D0DF1BC09E7DC01339A
:101BE000A84A2C44072BCDE92D34C9E9002500F380
:101BF0008783099B0B9A08998A42ACBF9B185B1894
:101C00000993002C40F0FF8100232D93109B1BB102
:101C10001099079802F01AFA0DF1BC095E46A8E681
:101C20000D9C073424F0070CDCE90023179323F004
:101C30000043189215461046089319460CF1080403
:101C40004FF0FF32904B0D94FEF74EFF002840F00E
:101C50009083284608994FF0FF328B4BFEF726FF02
:101C6000002840F08683DDE918021A9B1799FEF7D9
:101C700013FF002840F06C879DF89320032000217B
:101C8000824E834B089010918A46472FD8BF1E463C
:101C9000CDE9151128F080080C901391002A3FF42B
:101CA000ADAE089B01330893A8E600250D9B8DF887
:101CB00093501E681C1D002E00F03F84BAF1FF3FB8
:101CC00000F02B8652462946304602F057FD109010
:101CD000002800F07087AA46109B9B1BCDE90C34AE
:101CE00023EAE3730893CDF840A0CDF84CA0CDE9EA
:101CF00015AA9DF89320D1E748F008089BF80070DA
:101D0000D5E448F010039E063FF5A2AD0D99DD061F
:101D100001F1040200F10C835C060D9940F105838A
:101D2000B1F900400D92E517204629469BE59BF846
:101D300000700BF101022A2F01F02781A7F1300377
:101D4000092B93464FF0000A3FF6B3AC1BF8017B1A
:101D50000AEB8A0A03EB4A0AA7F13003092BF5D9EB
:101D6000A7E49BF8007048F00408A0E48DF89350B5
:101D70009BF800709BE40D9B9BF800701A6804337D
:101D8000002A0B920D93BFF692AC53420B93EAE7F5
:101D9000079F384602F04EFA436818461E9303F038
:101DA00093F821900446384602F044FA8368209361
:101DB000002C3FF4E2AC9BF80070002B3FF477ACB2
:101DC0001B78002B3FF473AC48F480686FE448F054
:101DD00001089BF800706AE49DF893309BF800704E
:101DE000002B7FF464AC20238DF893305FE4294B03
:101DF00018F0200F1B937FF48BAD0D9A18F0100F85
:101E000002F1040340F08C8218F0400F0D9A00F0AC
:101E10008382148800250D9383E548F010039E0605
:101E20003FF565AD0D9ADD0602F1040100F19382E4
:101E30005C060D9A40F18C821488002501220D91D8
:101E4000D4E49BF80070682F03BF9BF8017048F43E
:101E500000780BF1010B48F0400828E4002F3FF414
:101E60008CAD002301211A4608918DF8FC708DF885
:101E7000933010939A461393CDE915330C913FAEEE
:101E8000BCE500BF08570008FFFFEF7FC8560008F9
:101E9000C4560008E85600081B9858AE230943EAC8
:101EA0000573290904F00F020D461C46835C06F8F1
:101EB000013D54EA0503F1D1089B9B1B0C930023C1
:101EC00010931393CDE915330C9B9DF89320534544
:101ED000B8BF53460893E1E6652F40F39E80DDE9E5
:101EE00018021A9B1799FEF7CDFD002800F06681B5
:101EF00001212D9BAF4A0B440C44072B2E942D93AC
:101F0000C9E9002100F3428409F10809269B149ACB
:101F10002E9C934280F2EF812D9B1C9A01331D99D8
:101F20001444072BC9E90012CDE92D3400F3F982DE
:101F300009F10809149B5D1E002D7FF71CAE102DC2
:101F40002D9A40F3C6879C4B10261946079F2346BF
:101F5000DDF828A00C4605E009F10809103D102D18
:101F600040F3078401321033072ACDE92D23C9E954
:101F70000046F1DD2CAA5146384603F005F800284A
:101F80007FF40FACDDE92D230DF1BC09E6E70B9BD7
:101F9000089A9D1A002D7FF7A1AD102D2D9A864B22
:101FA00025DD49462046B1461C460A9E04E0103D08
:101FB000102D01F1080116DD102301321030072A1F
:101FC000CDE92D200C604B60F1DD2CAA314607983D
:101FD00002F0DAFF00287FF4E4ABDDE92D20103DAC
:101FE000102D2FA9E8DC4E462346894604460132CF
:101FF0002C44072ACDE92D24C9E9003500F3AC8330
:1020000009F108096AE52CAA0A99079802F0BCFFB1
:1020100000283FF4F9ADFFF7C4BB621C0C92149A80
:102020002D9B012A03F1010509F1080740F34F81B7
:1020300001230C9A072DC9F80060CDE92D52C9F88B
:10204000043000F35D831C9B0C9901351D9A1944E3
:10205000072D0C91CDE92D51C7E9002300F35D83D5
:1020600008376C1C11940E94149CDDE918021A9B1D
:10207000179904F1FF3A07F10809FEF703FD00285C
:1020800040F0E8800C9B0E9C53440136072C0C93C7
:102090003E602E93C7F804A02D9400F3318207F11F
:1020A00010034F469946AA1C0E921F9A0C997A600B
:1020B00011440E9A28AB072A0C462E912D923B60B4
:1020C0007FF759AD2CAA0A99079802F05DFF002806
:1020D0007FF467AB0DF1BC092E9C4CE5012A9846B4
:1020E0007FF4DBAB002D08BF0A2C80F0C6820123F1
:1020F00058AE303406F8014D0C93E0E62CAA0A994C
:10210000079802F041FF00287FF44BAB0DF1BC09AA
:102110002E9CCFE42CAA0A99079802F035FF0028DC
:102120007FF43FAB0DF1BC092E9CD3E42CAA0A9995
:10213000079802F029FF00287FF433AB269B2E9CE2
:102140000DF1BC091BB9149A002A00F013842D9AD2
:102150001C9901321D980C44072A2E94C9E90001EC
:102160002D9200F3358509F10809002BC0F2D385C3
:10217000149B01321C44072ACDE92D24C9E90063D0
:102180007FF7F7AC2CAA0A99079802F0FDFE002809
:102190007FF407AB2E9C0DF1BC09ECE42CAA0A9944
:1021A000079802F0F1FE00287FF4FBAA0DF1BC09AC
:1021B0002E9CCFE40457000818570008269B002BDC
:1021C00040F37C81DDE914239342A8BF1346002B22
:1021D0001D460BDD2D9B2C440133072B2E94C9E9A2
:1021E00000652D9300F3BA8409F10809159B002DB1
:1021F000A8BF5B1B002B1D4640F3D781102B2D9AE7
:1022000040F39D86BC4B2146184610274B46DDF80F
:102210001CA0B1460A9C064604E00833103D102D70
:1022200040F3AA8101321031072ACDE92D21C3E9FB
:102230000067F2DD2CAA2146504602F0A5FE0028D8
:102240007FF4AFAADDE92D212FABE7E7CDF830A071
:1022500058AE34E6BAF1000F7FF727AFBAF1100F8E
:1022600040F34C86A44B102619460C9A3B46DDF8E9
:102270001C900A9C119D0F4607E00833AAF1100A32
:10228000BAF1100F40F3918201351032072DCDE9DC
:102290002D52C3E90076F0DD2CAA2146484602F013
:1022A00073FE00287FF47DAADDE92D522FABE5E710
:1022B0000D9A18F0100F02F1040344D118F0400FEA
:1022C0000D9A3CD0148800250D93FFF78CBA18F0B6
:1022D000010F7FF4ADAE01220C99072DC9F8006003
:1022E000CDE92D51C9F8042000F3538402330E9335
:1022F00009F11009D9E618F0010F7FF40DAE3AE4A8
:102300002CAA0A99079802F03FFE00287FF449AAF8
:102310002E9C6EE458AED2E518F4007F40F018838E
:10232000146800250D93FFF7FCBA980500F11A8395
:102330000C680D92E51720462946FFF794BA18F469
:10234000007F40F00A83146800250D93FFF74BBA15
:10235000980500F1F2821468002501220D91FFF723
:1023600045BA099A5E461046D117C3E90001FFF746
:1023700000BB189C22462046179C23462146FEF7A8
:10238000B3FB002840F0A785612F00F0FD83412FAB
:1023900000F0F68227F0200348F48072BAF1FF3F84
:1023A00008931292179D00F02C85472B00F023858F
:1023B000002DC0F2E083189BCDE910000C93662F2E
:1023C00000F0E384462F00F06C850220089B2AA9C8
:1023D000452B06BF0AF101030E93CDF838A00E9CE1
:1023E0000491CDE9000426A927A8CDE902100C9A92
:1023F0002B46079800F0A8FE672F064640F0A285FE
:1024000018F0010F40F0F3842A9B40469B1BDDF837
:1024100048801493269B1593089B472B00F06483F8
:10242000089B462B00F00C840899159BFAB24129B1
:1024300008BF0F3203F1FF3306BFD2B201210021E2
:10244000002B8DF8A020B4BF2D222B222693B8BFDD
:10245000159B8DF8A120B8BFC3F10103092B00F330
:10246000DA84002940F0848530228DF8A2200DF115
:10247000A30230331370531C28AA9B1A149A1F937B
:10248000012A13440C9340F346850C9B1C9A134479
:102490000C9300231393CDE915330C9B20F480603B
:1024A00023EAE37340F480780893119B002B40F0FB
:1024B00048839A469DF89320FFF7F0BB01202D9AA0
:1024C0000E4902440444072ACDE92D24C9E900102D
:1024D0003FF72CAE09F1080934E64021079801F0D6
:1024E000BBFE0A9B18601861002800F06F8540232E
:1024F0000A9A5361FFF79BB8185700080457000861
:102500002CAA0A99079802F03FFD00287FF449A9F8
:10251000DDE92D3201330C920E930DF1C4092FAF7A
:10252000C3E52CAA0A99079802F02EFD00287FF433
:1025300038A90DF1BC092E9CFCE45346062B28BF9C
:102540000623B2461396CDE91566109632460893D7
:10255000CDE90C34A44EFFF7A1BB2CAA0A99079829
:1025600002F012FD00287FF41CA90DF1BC099DF8B2
:1025700093202E9CFFF78EBA0C4631464E46994664
:102580000B4601322C44072ACDE92D24C9E9003538
:1025900040F3D0812CAA0A99079802F0F5FC002894
:1025A0007FF4FFA82E9C0DF1BC09159B18F4806FD9
:1025B00033449A4640F01C81269B149A934247DB91
:1025C00018F0010F44D1149AB518A5EB0A05D31AD7
:1025D0009D42A8BF1D46002D0BDD2D9A2C440132D3
:1025E000072A2E94C9E900A52D9200F3658309F10D
:1025F0000809002DB4BF1D465D1B002D7FF7BBAA47
:10260000102D2D9A40F36584784B10261946079FAC
:102610002346DDF828A00C4605E009F10809103D25
:10262000102D40F3A68001321033072ACDE92D2367
:10263000C9E90046F1DD2CAA5146384602F0A4FC57
:1026400000287FF4AEA8DDE92D230DF1BC09E6E7F3
:102650002D9A1C9901321D980C44072A2E94C9E921
:1026600000012D9200F3DF8209F10809ABE7002D8C
:1026700008BF0A2C9846FFF43AAD002208F48063A4
:10268000CDF830901097CDF8388058AE9146DDF8EF
:1026900080801F460AE02046294600230A22FEF7D2
:1026A00061FA04460D4654EA050347D00A22002386
:1026B00020462946FEF756FA303206F8012C09F179
:1026C0000109013E002FE6D098F800309945E2D18B
:1026D000B9F1FF0FDFD0002D08BF0A2CDBD3219BFF
:1026E0001E99F61A1A46304602F01CFC98F8013082
:1026F000002B00F07A8308F101084FF00009CAE7C7
:102700002CAA0A99079802F03FFC00287FF449A8F8
:102710002E9B2FAF0C932D9D95E42CAA0A99079818
:1027200002F032FC00287FF43CA82E9B2FAF0C93C4
:102730002D9D96E4012A7FF4B0A8D8E4089BCDF83B
:1027400050909B1BDDF83090CDF88080109FDDF815
:1027500038800C93FFF7B3BB2CAA0A99079802F0B4
:1027600013FC00287FF41DA80DF1BC092E9CFFF777
:10277000B5B921461C460B4601322C44072ACDE947
:102780002D24C9E900357FF7F4A9FBE42CAA0A99A6
:10279000079802F0F9FB00287FF403A80DF1BC09AB
:1027A000FFF7B4BB114BFFF7CAB90C923A461F466C
:1027B00013466A1C0E9207F108020C99C7E9003A09
:1027C0000E9B5144072B0C912E912D933FF798AE01
:1027D00001330E9302F10809174666E4099A5E4632
:1027E0001A60FFF7C6B800BFFC560008185700086B
:1027F000149B4A46F3180C93169BCDF838B0CDF8CD
:1028000044801296BD4F5646DDF88490DDF88080F6
:102810002146DDF828B0DDF81CA0002B5DD0139B0D
:10282000002B5ED1169B08F1FF38013B16932D9BC0
:102830001E9801334944072B2E91C2E900092D93BC
:1028400053DC08320C9898F80030851B9D42A8BFD5
:102850001D46002D0BDD2D9B29440133072B2E91A6
:10286000C2E900652D934BDC98F800300832002D4A
:10287000B4BF1D465D1B002D2BDD102D2D981CDDDA
:10288000102404E0103D102D02F1080215DD013086
:1028900010310728CDE92D01C2E90074F2DD2CAA20
:1028A0005946504602F070FB00287EF47AAFDDE90D
:1028B0002D01103D102D2FAAE9DC013029440728F5
:1028C000CDE92D01C2E900753EF763AF98F80030FD
:1028D00008321E44169B002BA1D1139B002B00F045
:1028E000F380139B013B1393A1E72CAA5946504652
:1028F00002F04AFB00287EF454AF2FAA2E99A1E7DC
:102900002CAA5946504602F03FFB00287EF449AFFE
:102910002FAA98F800302E99A9E7304602F0D4FA91
:10292000AA460346FFF7DAB998F800302FAA2E9985
:102930001E44CFE709F1080937E614780025012283
:102940000D91FEF753BF099A5E461A80FFF711B842
:10295000147800250D93FEF7E4BF147800250D933D
:10296000FEF741BF91F900400D92E5172046294638
:10297000FEF779BF18F0010F3FF4FDA8FFF7E7BBA2
:10298000302258238DF89420BAF1630F8DF89530DA
:1029900048F0020400F3E68148F48173129327F0B3
:1029A000200308930023A046179D10933FAE002DEF
:1029B000C0F2E280189B179D0C9300231193612FA6
:1029C00000F09381412F7FF4FAAC26AA0C98294697
:1029D00002F036FA00224FF07F53FDF7EBFDDDE900
:1029E0001923CDE90E01FEF74DF8002840F044828E
:1029F000434B0C93CDE9157A0AF1FF35CDE9139BD2
:102A00002396B146DDE90E67CDF88880DDF830A069
:102A100005E0DDE91923FEF735F8F8B9A1460022F3
:102A2000384B30463946FDF7C5FD0F460646FEF7E2
:102A300071F88046FDF754FD02460B463046394694
:102A4000FDF700FC4C461AF808C06A1CAB46064667
:102A50000F4604F801CB05F1FF35DAD1304639468F
:102A60000022294B159F4546CDF85490DDF858A01B
:102A7000DDF84C90DDF88880CDF84CB0239EDDF871
:102A800050B0CDE90E01FEF725F8002840F0AF80E8
:102A9000DDE90E0100221C4BFDF7F4FF18B12B46B7
:102AA000DB0700F1A480139B002B07DB3022139B74
:102AB0000133234404F8012BA342FBD1A31B40465E
:102AC0001493DDF84880A5E4B246149B129ECDF81D
:102AD0008080F3189A459146DDF838B0DDF84480DF
:102AE0000C4628BF9A4667E5159BDA1C01DB534567
:102AF0000CDD023F27F02003089395E418570008E7
:102B0000E8560008000030400000E03F159B149993
:102B10008B42C0F2E080C20740F1AB811C9A1344A3
:102B20000C93470540F1C280159B002B00F34C82AB
:102B300067270C9B23EAE3730893002313931693F0
:102B4000B3E42D224FF0000A8DF89320FFF7A9B8C7
:102B50002D231A468DF89330FFF790B82CAA0A99C6
:102B6000079802F011FA00287EF41BAE0DF1BC09A3
:102B70002E9CFFF73BBB1090189B0C93179B03F107
:102B800000452D2311931AE730238DF894307823D4
:102B9000FAE62CAA0A99079802F0F6F900287EF4C2
:102BA00000AEDDE92D3201332FAF0C920E930DF103
:102BB000C409FFF77ABACDF820A0CDF830A00D9463
:102BC00082461390CDE915009DF89320FFF766B873
:102BD0002CAA0A99079802F0D7F900287EF4E1ADF3
:102BE000DDE92D240DF1BC09269BFFF7BEBA159B2C
:102BF0002A930C9B14F8012CD97B2346914209D1CE
:102C0000302003F8010C2A9B5A1E2A9213F8012C3B
:102C10009142F6D0392A0BBF0C9A0132927AD2B285
:102C200003F8012C4AE72CAA0A99079802F0ACF99C
:102C300000287EF4B6AD0DF1BC09269B2E9CC2E4A3
:102C4000159B002B40F36C81159BBAF1000F40F0EF
:102C5000DC80C40700F1D98066270C93430526D594
:102C60000023209813931693159A0378FF2B0BD00B
:102C7000934209DA4178D21AA1B1169B013001338F
:102C800016930B46FF2BF3D11592169B139A0C99B2
:102C90001344219A209002FB03130C9323EAE3735D
:102CA000089302E4139901311391DFE767270C9B26
:102CB00023EAE373089340E72CAA0A99079802F0E5
:102CC00063F900287EF46DAD269B149A0DF1BC09C2
:102CD0002E9CD31A8DE4149B1C9A13440C93159BC1
:102CE000002B40F30E816727B8E726AA0C982946E7
:102CF00002F0A6F800224FF07F53FDF75BFCDDE900
:102D00001923CDE90E01FDF7BDFE08B1012326937D
:102D1000B64B0C936EE65D42103380F24F81B44B9C
:102D200010271946DDF81CA023460C4605E009F1E2
:102D30000809103D102D40F3A48001321033072AFA
:102D4000CDE92D23C9E90047F1DD2CAA0A995046A7
:102D500002F01AF900287EF424ADDDE92D230DF1EF
:102D6000BC09E6E70AF10101079801F075FA064689
:102D7000002800F0338148F48173129327F0200378
:102D80000893A046179D109011E603202AA9CDE9CB
:102D9000000A049127A826A9CDE902100C9A2B4617
:102DA000079800F0D1F90646CDF838A000EB0A04E8
:102DB0003378302B00F0CE80269B1C44199A0C9857
:102DC0001A9B2946FDF75EFE10B12346FFF71DBB97
:102DD0002A9BA342BFF419AB30215A1C2A921970C6
:102DE0002A9B9C42F9D8FFF710BB994653E40E9BEF
:102DF00033441C46E2E7BAF1000F00F09B801090CC
:102E0000D5E510904FF0060AD1E51C9A66271344C9
:102E100053440C9322E70DF1AF0C6446754D00E06E
:102E20001446A5FB0321C90801EB8102A3EB420272
:102E30003032092904F8012C0B4604F1FF32EFDC93
:102E40003033023CDBB2A44502F8013C40F2B880CA
:102E50000DF1A204114601E011F8013B8C4504F884
:102E6000013BF9D12CAB9B1A0DF1A2021344FFF7E1
:102E700003BB159B0C9354E6012326935E4B0C93E6
:102E8000B8E521461C460B4601322C44072ACDE901
:102E90002D24C9E9003500F3838009F10809FFF703
:102EA00067B903202AA9CDE9000A049127A826A919
:102EB000CDE902100C9A2B46079800F045F906461A
:102EC000CDF838A00E9B462F06EB03043FF470AFFD
:102ED00074E7474B50E4179B0320002BB8BF2D230A
:102EE0004FF00001BABF1A468DF893309DF8932039
:102EF00008901091414E424BFEF7C6BE4A463C4BED
:102F00005BE40C9AC3F101031A4422EAE2730C92C7
:102F10000893672711E6C5077FF5BBAAFFF7B5BA87
:102F2000BAF1000F28D1C10726D4012366270893E0
:102F30000C9302E6CDF840A04FF0010A37E52C4B88
:102F4000FFF71FBB472F7FF452AF18F0010F3FF47C
:102F50005BAAB7E7199A0C981A9B2946FDF792FDD0
:102F600000287FF429AF0E9BC3F10103269324E7C9
:102F70000DF1A202FFF77DBA1C9B66270133534473
:102F80000C9323EAE3730893D7E50D999BF801703E
:102F90000B68934643EAE37A0B1D0D93FEF787BB5C
:102FA0002CAA0A99079801F0EFFF00287EF4F9ABEC
:102FB000DDE92D240DF1BC09FFF7DAB80C4B63E70E
:102FC0000DF1A203FFF758BA672749E64FF0FF3229
:102FD0000C230992079A1360FEF7F2BB0A9A9389B1
:102FE00043F040039381FEF7E4BB00BFD4560008D2
:102FF00018570008CDCCCCCCE8560008D0560008B5
:10300000CC560008024B13B1024800F005B87047D7
:1030100000000000793F0008002301461A461846C8
:1030200002F02CB82DE9F04F03690E6983B0B3426A
:10303000C0F28680013E01F1140800F1140958F82D
:10304000263059F826700133B7FBF3F7B30000932D
:1030500008EB030A4B440193002F3BD00023C646E4
:103060001C46CC465EF8042BDCF800501FFA82FBAD
:1030700007FB0B33120C4FEA134B07FB02BB9AB250
:10308000A21AABB21FFA8BF41A44C4EB154404EB3A
:10309000224492B242EA0442F2454CF8042B4FEA31
:1030A00024444FEA1B43DDD2009B59F803308BB90F
:1030B000019A131F99450CD252F8043C4BB9A2F166
:1030C000080302E01A68043B1AB9994506F1FF3675
:1030D000F8D30661044601F0BFFD00282CDB4D4605
:1030E0000023013758F8041B28688AB29A1A0B0C7F
:1030F00081B20A44C3EB104303EB224392B242EA8B
:103100000342C24545F8042B4FEA2343EAD259F85B
:10311000262009EB86037AB91A1F91450BD253F882
:10312000042C42B9083B02E01A68043B1AB99945DD
:1031300006F1FF36F8D32661384603B0BDE8F08FBC
:10314000002003B0BDE8F08F2DE9F04F1F46164672
:10315000036C99B00446CDE902674BB10122456C7E
:103160001946AA40C3E9015201F080FB0023236401
:103170003E1EB4BF01230023259AB8BF26F00046A7
:103180001360754BB8BF0396B34300F0A380DDE92D
:1031900002890022002340464946FDF773FC07469A
:1031A00078B10123249A1360269B002B00F0BF8086
:1031B0006A4B269A03F1FF391360484619B0BDE8FF
:1031C000F08F16AA17ABCDE90032204642464B4697
:1031D00001F0DEFD350D834640F09C80DDE916856B
:1031E000454405F23243202B40F33184C3F14003C0
:1031F0009E40029B05F2124023FA00F03043FDF797
:103200005FF90122013D0A92A1F1F8710022544BAD
:10321000FDF718F84AA3D3E90023FDF7CBF94AA339
:10322000D3E90023FDF710F8064628460F46FDF7C0
:1032300057F947A3D3E90023FDF7BCF902460B4633
:1032400030463946FDF700F806460F46FDF762FCAA
:1032500000220590002330463946FDF71DFC00286A
:1032600040F07782059E162E00F26182DDE902238E
:103270003C4901EBC601D1E90001FDF72BFC002818
:1032800000F0E183731E059300230D93A8EB050561
:10329000B5F1010A00F1578200230693059B002B2C
:1032A000C0F248829A440C9300230B93229B092B73
:1032B00060D8052B40F3C9830026043B2293229B50
:1032C000023B032B00F2A184DFE813F0E603C803FE
:1032D000F003FC0442F20F73249A1360029B83B93B
:1032E000C6F313066EB9269BDFF87C90002B3FF4E3
:1032F00064AF09F108034846269A136019B0BDE887
:10330000F08F269BDFF86490002B3FF456AF09F155
:103310000303F0E7C9F3130343F07F514046A5F2DE
:10332000FF350A9741F44011DDF858806EE7DFF869
:103330004090484619B0BDE8F08F00BFAFF3008061
:1033400061436F63A787D23FB3C8608B288AC63FAB
:10335000FB799F501344D33F0000F07F05570008CE
:103360000000F83F6057000828570008345700084D
:10337000045700084FF0FF3501260023CDE9085619
:1033800022932393002114956164204601F048FAAA
:103390000E2D8146206400F2FE80002E00F0FB809E
:1033A000DDE9022316461F460599CDE90E6700297F
:1033B00040F3E9839B4B01F00F020D1103EBC203B5
:1033C000D3E90012CDE90212EA0640F1A084964B3F
:1033D0003946D3E908233046FDF716FA0327CDE92D
:1033E000100105F00F057DB1DDE902018E4EEB07FE
:1033F00004D5D6E90023FDF7DDF801376D1006F19D
:103400000806F4D1CDE90201DDE90223DDE910016E
:10341000FDF7FAF9CDE902010D9B43B1DDE90201A7
:103420000022824BFDF738FB002840F00985384622
:10343000FDF756F8DDE90223FDF7BCF87C4B0022CE
:10344000FCF702FF089B0546A1F15076002B00F027
:103450001E84059B1593089B1093DDE90201FDF77F
:1034600059FB109A6F4B00F1300803EBC20353E98C
:103470000212CDE91212FDF733F80B460246DDE9E0
:103480000201CDE90256FCF7DDFE099B5FFA88F8E0
:1034900006460F4609F10105002B00F06384DDE9C3
:1034A000122300206349FDF7AFF9DDE90223FCF7A1
:1034B000C9FE89F8008032463B46CDE90201FDF79E
:1034C00009FB002840F00E8532463B460020574954
:1034D000FCF7B8FE02460B46DDE90201FDF7FAFAF9
:1034E000002840F00985109A012A50D04A44CDF8AE
:1034F00048A0CDF840B0A046DDE902ABCDF8089079
:1035000091460EE032463B4600204849FCF79AFEC1
:1035100052465B46FDF7C0FA002840F0E6844D4570
:103520002ED0504659460022434BFDF743F8002267
:10353000414B82468B4630463946FDF73BF80F46F5
:103540000646FDF7E7FA0446FCF7CAFF02460B46BB
:1035500030463946FCF776FE3034E4B205F8014BCC
:1035600052465B4606460F46FDF796FA0028C9D03C
:10357000159BDDF840B0DDF808904446059339E22C
:103580004446DDF848A0DDF840B0DDF80890DDE9FC
:103590000E23CDE90223179B002BC0F2A980059AC8
:1035A0000E2A00F3A5801F4B03EBC203D3E90023CF
:1035B000CDE90623239B002BC0F2C182DDE902671F
:1035C000DDE9062330463946FDF71EF9FDF7A2FA7C
:1035D0008046FCF785FFDDE90623FCF7EBFF02469A
:1035E0000B4630463946FCF72DFE089E08F13005A3
:1035F000012E89F8005002460B4609F101054CD016
:1036000000220D4BFCF7D6FF0022002306460F4692
:10361000FDF738FA002840F0ED81CDF808B0DDE97B
:1036200006AB18E060570008385700080000F03F6C
:1036300000001C400000E03F000024400022C64B78
:10364000FCF7B8FF0022002306460F46FDF71AFAE2
:10365000002840F0418352465B4630463946FDF72C
:10366000D3F8FDF757FA8046FCF73AFF52465B461F
:10367000FCF7A0FF02460B4630463946FCF7E2FD58
:1036800008F1300605F8016B089FA5EB0906B74263
:1036900002460B46D2D1DDF808B010461946FCF7B9
:1036A000D3FDDDE9062306460F46FDF713FA60B9A0
:1036B000DDE9062330463946FDF7E4F9002800F03D
:1036C000998118F0010F00F0958115F8018C05E043
:1036D000994500F03A831D4613F8018CB8F1390F73
:1036E00005F1FF33F4D008F1010883F8008081E18F
:1036F000099A002A3DD0229A012A40F31282089B9F
:1037000003F1FF380B9B4345C0F2E982A3EB0808A5
:10371000089B002BC0F20E83069A9A440A921A4420
:1037200006920121204601F03DF9064626E00123DC
:103730000D93ABE500230C93DDE90532D21A5B4211
:1037400006920B93B2E5C5F1010306934FF0000A10
:10375000A4E5DDF814904846FCF7C2FE32463B462D
:10376000FDF790F900287FF47DAD09F1FF33059353
:1037700078E5069BDDF82C80099E0A930A990029BA
:103780000B460CDDBAF1000F09DD5145A8BF5346C9
:10379000069AAAEB030AD21A0692CA1A0A920B9B3D
:1037A0007BB1099A002A00F09082A3EB0807B8F1D8
:1037B000000F40F09A8159463A46204601F0A2F99E
:1037C00083460121204601F0EDF80C9A0746002AB5
:1037D00040F02581229B012B40F36B810120504456
:1037E00010F01F0000F01981C0F12003042B40F3FA
:1037F000B483C0F11C00069B8244034406930A9BD9
:1038000003440A93069B002B05DD59461A462046C1
:1038100001F0C8F98346BAF1000F05DD394652467A
:10382000204601F0BFF907460D9B002B77D1089B7E
:10383000002B40F30582099B002B00F089800A9B36
:10384000002B00F367810C9B002B40F0CA81B2462D
:10385000C846029B089A03F001030A9309F1FF335B
:103860001A440692CDF82C9039465846FFF7DAFBF9
:10387000314681460990584601F0EEF952460290D1
:103880003946204601F004FAC268054609F13009BC
:103890000146002A40F0CF81584601F0DDF9294663
:1038A0000890204600F0E2FF089A32B9229B23B923
:1038B0000A9B002B00F02483229A029B002BC0F26B
:1038C000198205D1229B1BB90A9B002B00F01282A2
:1038D000002A08F1010500F32182069B88F8009078
:1038E000434500F02C82594600230A22204600F06E
:1038F000C7FF5645834631464FF000034FF00A029A
:10390000204600F0928100F0BBFF5146064600239E
:103910000A22204600F0B4FFA8468246A4E73946B2
:10392000584601F099F9002881DA059D594600238F
:103930000A222046013D059500F0A2FF099B83461F
:10394000002B40F0EE82149B002B40F3F982089389
:103950004D46DDF8208008E0000024405946002351
:103960000A22204600F08CFF834639465846FFF76E
:1039700059FB303005F8010BA5EB09029045EDDC51
:10398000002203460292594601222046089301F084
:1039900009F93946834601F05FF9002815F8012C32
:1039A000089B11DC05D1DB070ED402E015F8022CD0
:1039B0001D46302A05F1FF33F8D00BE0994500F0A1
:1039C0004C811D4613F8012C392A05F1FF33F5D03F
:1039D00001321A703946204600F048FF56B102996C
:1039E00021B1B14202D0204600F040FF31462046CE
:1039F00000F03CFF5946204600F038FF0022059BAE
:103A00002A70249A01331360269B002B3FF4D5AB18
:103A100048461D6019B0BDE8F08F1C20EBE601465A
:103A2000204601F06FF8229B0746012B40F3D4801B
:103A300000230C933B6907EB8303186900F062FFD6
:103A4000C0F12000CBE60D9020E4012637E4C3F15D
:103A50002006029B03FA06F0FFF7D1BB002309936F
:103A6000059B239A134414930133012B1F46B8BFBF
:103A7000012708930021172F089D61647FF785AC0B
:103A8000012204235B0003F11400B842114602F145
:103A90000102F7D9616478E400230993239B002B8A
:103AA00040F3E280149308931F46E3E70123099350
:103AB000F4E7029B002B7FF491AEDDE90212C2F322
:103AC0001303002B40F0998122F000431B0D1B05CE
:103AD0002BB1069B0AF1010A0133069301230C9ACC
:103AE0000C93002A3FF47AAEA4E7424631462046C2
:103AF00001F008F85A4601460646204600F05CFFF1
:103B000080465946204600F0B1FEC346002F3FF4E0
:103B100058AE50E631461A46204601F043F80646B4
:103B200091E60A9A002A00F05D81069A03F2334377
:103B30000A921A449A440692DDF82C80F1E5089B1B
:103B4000002B3FF73BAD40F0F881DDE90601002294
:103B5000B54BFCF72FFDDDE90223FCF7B1FF089F11
:103B60003E46002874D13123059A89F8003001328D
:103B7000059209F101053946204600F077FE002E36
:103B80007FF434AF36E700F04881DDE90E01059B94
:103B90005D42A64B05F00F0203EBC203D3E90023FD
:103BA000FCF708FD2D11CDE9020100F0CE810023C4
:103BB00002279F4EEA0705D5D6E90023FCF7FAFC59
:103BC00001231F446D1006F10806F3D1002B3FF4CA
:103BD00023ACCDE902011FE4029B002B3FF46DAF43
:103BE00026E77168204600F01BFE0546336906F1A2
:103BF0000C0102339A000C30FCF7AAFA2946012284
:103C0000204600F0CFFF824622E60025204665646C
:103C1000294600F005FE4FF0FF331493089301236B
:103C20008146239520640993B5E400F029FEA84657
:103C30000646824618E6204600F018FE01223CE6C1
:103C4000229B022B7FF7F7AD089B002B00F0D7805B
:103C5000239B4D46DB4305938DE73123059A89F875
:103C6000003001320592B5E6012523950895FFF74E
:103C700089BB3846FCF734FCDDE90223FCF79AFCEB
:103C800000226C4BFCF7E0FA0546A1F15076DDE925
:103C900002010022644BFCF7D5FA2A463346CDE9EF
:103CA0000201FCF717FF0746002858D1DDE90201A1
:103CB0002A4606F10043FCF7EFFE00283FF467AC0C
:103CC0003E46C5E701230993CAE659460B9A2046AA
:103CD00000F018FF834674E5DDF808B08AE60B9B18
:103CE0000C9AA8EB03031A44CDF82C800C924FF0E9
:103CF00000080DE5002A4B4608F10105DDF82C907F
:103D000000F3C580029688F80030564662E6DDE989
:103D10000E230227CDE91023FFF765BB4B46392B55
:103D2000DDF82C9000F0C5800133029688F8003051
:103D300056464FE6069B089A9B1A0A93F1E44B46B7
:103D40000296DDF82C9056461DE6302389F80030A7
:103D5000059B15F8018C013305934B46C3E40027FE
:103D60003E4600E7DDE91223DDE90201FCF722FC13
:103D7000109BCDE90201012B89F8008021D0109B16
:103D8000CDF840A04B449A4600222B4B3046394692
:103D9000FCF710FC0F460646FCF7BCFE8046FCF71D
:103DA0009FFB02460B4630463946FCF74BFA08F1BA
:103DB000300805F8018B554506460F46E4D1DDF87D
:103DC00040A00022DDE902011C4BFCF73DFA32461F
:103DD0003B46FCF761FE002871D0159B059315F852
:103DE000018C7BE4169B069AC3F136030A921A44AF
:103DF0009A440692DDF82C8093E400236FE639465E
:103E00000522204600F03CFD01460746584600F0DA
:103E100023FF00283FF7A7AE1AE7DDE90E230227AC
:103E2000CDE90223FFF7F8BA0000144060570008FC
:103E30003857000800001C40000024400000E03F0C
:103E4000089B002B3FF415AF149B002B7FF79FAB13
:103E5000DDE902010022454BFCF7ACFB05460E46AE
:103E6000781CCDE90256FCF73BFB2A463346FCF7AB
:103E7000A1FB00223E4BFCF7E7F9059A149B013A9F
:103E800005461592A1F150761093FFF7E6BA594610
:103E900001222046029300F085FE3946834600F059
:103EA000DBFE0028029B36DD392B02D0099B313323
:103EB00028E73922029688F80020564684E5DDE995
:103EC000022300202B49FCF7BDF932463B46FCF7A4
:103ED00001FE10B9FFF75BBB154615F8013C6A1EE1
:103EE000302BF9D0159B059384E54346A0461C462C
:103EF000DDF840B0DDF80890159B0593FFF7EEBBA9
:103F00004B46392BDDF82C9008F10105D1D0029AEF
:103F1000002ACBDCF6E67FF4F5AEDA077FF5F2AEE9
:103F2000C2E7314600230A22204600F0A9FC149B78
:103F30000646002B0CDD089381E400273E4687E609
:103F4000229B022B0EDC149B01E50227FFF764BACB
:103F5000229B022B06DC149BEDE73FF453ACC0F12F
:103F60003C0048E4149B08936EE600BF0000244028
:103F700000001C400000E03F38B50A4C0A4D641BAD
:103F8000A4100AD004F18043013B05EB8305013CFA
:103F900055F804399847002CF9D1BDE8384001F0B4
:103FA00047BB00BF5C59000858590008F8B50C46DB
:103FB000234F064600F028FCBB68C4F57E615D68AF
:103FC0000F3125F00305294421F47F6121F00F0111
:103FD000A1F58054B4F5805F07DB0021304600F086
:103FE00061FFBB682B44984204D0304600F012FCBD
:103FF0000020F8BD6142304600F054FF01300DD082
:10400000104BBA6819682D1B45F001053046091B95
:104010005560196000F0FEFB0120F8BD002130461C
:1040200000F040FFBA68831A0F2BDEDD064943F02B
:1040300001030C680349001B53600860D5E700BF0B
:1040400044040020E40900204C080020002953D03B
:10405000F8B50D46064600F0D7FB55F804CC714F75
:10406000A5F108012CF00103CA18B8685468904201
:1040700024F0030453D01CF0010F546002EB040041
:104080003BD155F808CC4068A1EB0C018D6807F1D5
:10409000080E7545634400F0010075D0D1F80CC0DE
:1040A000C5F80CC0CCF8085060B343F001024A6078
:1040B000CB50B3F5007F50D35A0A042A70D89A091E
:1040C00002F13905ED0002F138007C197A59083CFB
:1040D000944278D0506820F00300984271D99268D9
:1040E0009442F7D1E368C1E9024330469960E16048
:1040F000BDE8F84000F08EBB7047406800F001005A
:104100000028D2D19068484D2344A84243F00104CE
:1041100062D0D268C26090604C60CB50C9E71CF09E
:10412000010F234407D155F8084C091BD1E90202BD
:104130002344C26090603D4A43F001001268486029
:104140009A42B96004D83A4B30461968FFF72EFFFF
:104150003046BDE8F84000F05DBB0122DB087C681A
:10416000981013448240224307EBC30057F83340B2
:104170000838C1E902407A60304647F83310E16000
:10418000BDE8F84000F046BB002845D1D2E9020264
:10419000234443F00104C26090604C60CB50D7E7E9
:1041A000142A08D9542A1ED81A0B02F16F05ED0003
:1041B00002F16E0089E702F15C05ED0002F15B009F
:1041C00083E714468EE701238210786803FA02F22F
:1041D00002437A60234686E7C7E90411C1E9020079
:1041E0004C60CB50B4E7B2F5AA7F06D8DA0B02F1E7
:1041F0007805ED0002F1770067E740F25450824203
:1042000006D89A0C02F17D05ED0002F17C005CE716
:104210004FF47E757E2058E743F00100486013603C
:1042200096E700BF440400204C0400205008002002
:10423000140A0020044A054B1268506B002808BF7E
:104240001846F030704700BF1400002054080020CA
:10425000704700BF704700BF2DE9F04F01F10B051B
:10426000162D83B0064623D8102900F2B68000F040
:10427000CBFA102518230220CC4F3B445C68A3F1F5
:104280000802944200F056816368E16823F003035A
:1042900023445A68A56842F00102E96030468D6007
:1042A0005A6000F0B7FA0834204603B0BDE8F08F3A
:1042B00035F0070500F19180A94200F28E8000F0F0
:1042C000A3FAB5F5FC7FC0F064816B0A00F08C8026
:1042D000042B00F23681AB0903F1390003F1380CED
:1042E000C100B24F39444C680839A14206D10CE0F4
:1042F000002A80F21B81E468A14206D0636823F0A3
:1043000003035A1B0F2AF3DD60463C69DFF8B0C295
:1043100064456FD0636823F003035A1B0F2A00F330
:104320002681002AC7E904CC80F21781B3F5007F0B
:1043300080F059810122DB08991013448A40796882
:1043400057F833E007EBC3080A43A8F10801C4E9B2
:1043500002E17A6047F83340CEF80C400124831024
:104360009C4094424CD8144206D120F003006400D3
:10437000144200F10400FAD007EBC009CE46804693
:10438000DEF80C309E4507D107E1002A80F21C813F
:10439000DB689E4500F00181596821F003014A1B4A
:1043A0000F2AF2DD45F001083046D3E902E41D444E
:1043B00042F00106C3F80480CEF80C40C4F808E0CF
:1043C000C7E90455C5E902CC6E605A50019300F06C
:1043D00021FA019B03F1080466E700240C23204620
:1043E000336003B0BDE8F08F4FF4007140204FF010
:1043F0003F0C76E701247A6883109C409442B2D93E
:10440000BC68636823F00309A94503D3A9EB05033E
:104410000F2B7BDC664BDFF8ACA11A68DAF80030B2
:1044200005EB0208013300F03A8108F5805808F1E5
:104430000F0828F47F6828F00F084146304600F046
:1044400031FDB0F1FF3F834600F0F68004EB090038
:10445000584500F2EF80574A13684344136000F058
:104460003F81DAF8001001311BBFABEB00001B18D5
:10447000CAF800B013601BF0070300F02681C3F1F7
:104480000801C3F580538B440833D844C8F30B08A4
:10449000A3EB080841463046019200F003FD431C9F
:1044A000019A00F03881A0EB0B01414441F0010179
:1044B0001368BC424344C7F808B01360CBF804103B
:1044C00015D0B9F10F0F40F222814FF0050E61684F
:1044D000A9F10C0020F0070001F00101014304EBF9
:1044E000000C0F286160CCE901EE00F22C81324A09
:1044F00032481168BC688B42016888BF13606268EB
:104500008B4222F0030288BF036099E045F001026C
:1045100043F00103254462603046BD6008346B609F
:1045200000F078F9204603B0BDE8F08F23445A68C4
:10453000E168AFE6DC68A34208BF02303FF4E5AEB5
:10454000A2E6142B70D9542B00F2AC802B0B03F194
:104550006F0003F16E0CC100C3E623445A68304675
:1045600042F001025A60083400F054F99CE645F02C
:10457000010E42F001012544C4F804E03046C7E9C9
:104580000455C5E902CC6960E25000F043F90834F3
:104590008AE6E80805F108036EE608F1010818F05C
:1045A000030F0EF1080E7FF4EBAE60E04404002030
:1045B000140A0020E40900200C0A0020100A002040
:1045C0004C0400204C0800201C4619444A68DB6853
:1045D00054F8085F42F001024A603046EB609D608B
:1045E00000F018F960E65A0A042A35D9142A6FD85F
:1045F00002F15C01C9005B3207EB010E7958AEF1A4
:10460000080E8E4558D04A6822F003029A4202D919
:1046100089688E45F7D1D1F80CE07A68C4E9021EAA
:10462000CEF80840CC6099E603F15C0003F15B0C26
:10463000C10056E6BC4272D0BC68626822F0030238
:104640009542A2EB050302D80F2B3FF75FAF304630
:1046500000F0E0F8002427E69A0902F13901C900C8
:104660003832C9E7D9F80090994540F0838010F0BE
:10467000030FA9F1080300F1FF30F3D17B6823EAAF
:1046800004037B6064009C423FF6BAAE1CB9B7E6F7
:10469000640008F104081C42FAD040466CE608F1B8
:1046A0001008CAE6B3F5AA7F26D8EB0B03F1780011
:1046B00003F1770CC10014E64FF001087B689210FB
:1046C00008FA02F21A437A60A8E74FF48053DCE656
:1046D000542A29D81A0B02F16F01C9006E328BE7F8
:1046E000C0F30B0100297FF4BCAE09EB0802B968E6
:1046F00042F001024A60FAE640F2545293421CD85A
:10470000AB0C03F17D0003F17C0CC100E9E5012352
:10471000CBF804309BE701214FF00008C8E6164AA9
:104720001368434413609CE6B2F5AA7F14D8DA0BF1
:1047300002F17801C90077325EE74FF47E717F2085
:104740004FF07E0CCDE504F1080130460192FFF7F1
:104750007DFC019A1368CAE640F254518A4205D89A
:104760009A0C02F17D01C9007C3245E74FF47E715D
:104770007E2241E77B6885E7E4090020830770B467
:10478000CDB23DD0541E0AB30378AB421FD0431CB8
:1047900005E014F1FF3419D30278AA4217D013F0C0
:1047A000030F184603F10103F3D1032C11D84CB3C6
:1047B0000378AB420BD00444431C02E00278AA42C7
:1047C00005D09C42184603F10103F7D1002070BCCC
:1047D000704706460A0292B22A4342EA024233680E
:1047E00030465340A3F1013121EA030313F0803F27
:1047F00006F10406DCD1043C032C3046EFD8D6E7A2
:104800001446D2E72046E2E70148FFF721BD00BF8A
:10481000280A00200148FFF71DBD00BF280A00201C
:10482000C36C70B505460C464BB153F8240080B1FB
:10483000026843F824200023C0E9033370BD21221D
:10484000042100F07BFC0346E8640028EDD1002041
:1048500070BD012101FA04F6721D2846920000F095
:104860006DFC0028F3D0C0E90146E4E731B1C36C28
:104870004A6853F82200086043F82210704700BFCE
:10488000F0B54FF0000C0C4605460E6983B001F1FF
:10489000140738680CF1010C81B202FB0133010CE2
:1048A000180C02FB01019BB203EB0143664547F87C
:1048B000043B4FEA1143ECDC3BB1A268B24207DD96
:1048C00004EB8602013653612661204603B0F0BD39
:1048D0006168284601310193FFF7A2FF074622696C
:1048E00004F10C01023292000C30FBF731FCEA6C4F
:1048F0006168019B52F82100206042F821403C464B
:10490000DEE700BF020C12040346C2B90304102004
:1049100013F07F4F04BF1B02083013F0704F04BF29
:104920001B01043013F0404F04BF9B000230002BEA
:1049300004DB5B0001D50130704720207047002068
:10494000E6E700BF0368014613F0070207D0DA0765
:104950001FD498071FD55B080B600120704798B2E1
:10496000A0B1104613F0FF0F04BF1B0A08301A074E
:1049700004BF1B0904309A0704BF9B080230DA0702
:1049800002D45B080BD001300B6070471B0C102069
:10499000E8E7002070479B080B600220704720204A
:1049A000704700BF10B50C460121FFF739FF012207
:1049B000C0E9042410BD00BF2DE9F04F0D69146952
:1049C00085B0A5420E46914604DA2A464E46254653
:1049D00089461446B36805EB040871684345B8BFBF
:1049E0000131FFF71DFF00F1140B0BEB880AD345D3
:1049F000019005D25B46002243F8042B9A45FBD870
:104A000009F1140303EB840406F11402A34202EB40
:104A1000850E62D2A4EB0904153C24F00304234460
:104A2000CDE902A809F1100990469A4605E0090C63
:104A30002CD1CA450BF1040B4DD059F8041F1FFAB5
:104A400081FCBCF1000FF2D047465E46002100E039
:104A50000646304657F8042B346893B2A5B2120CC0
:104A60000CFB0353240C0CFB02420B4402EB1341DE
:104A70009BB243EA0143BE454FEA114140F8043B73
:104A8000E6D87160D9F80010090CD2D0DBF80030FC
:104A900040461E465D46002200E025462C4607881B
:104AA000360C01FB07669BB2324443EA024344F8EA
:104AB000043B50F8043B6E681B0CB7B201FB037358
:104AC000864503EB12434FEA1342E6D8CA456B60B2
:104AD0000BF1040BB1D1DDE902A8B8F1000F0BDD39
:104AE0005AF8043CAAF1040A1BB105E05AF8043D47
:104AF00013B9B8F10108F9D10198C0F8108005B0D8
:104B0000BDE8F08F12F003032DE9F041144607468B
:104B10002ED10D46A4101CD0BE6C96B3E3074FF007
:104B2000000806D4641014D03068A8B10646E30724
:104B3000F8D5324629463846FFF73EFFB5B16A68D8
:104B4000FB6C641053F82210296043F8225005468C
:104B5000EAD12846BDE8F081324631463846FFF7B3
:104B60002BFF3060C0F800800646E0E70546D9E735
:104B70000B4A013B52F823200023FFF781FE054634
:104B8000C8E701213846FFF74BFE40F271210122B0
:104B90000023C0E904210646B8640360BEE700BFF5
:104BA000285800080B692DE9F047541104EB03085D
:104BB0008B6808F101059D420E46914607464968FB
:104BC00004DD5B009D4201F10101FADC3846FFF78C
:104BD00027FE002C00F114033CDD002203EB8401CE
:104BE00043F8042B8B42FBD1346906F1140319F00E
:104BF0001F0903EB840C25D0C9F120024FF0000AF5
:104C000000E071468E461C6804FA09F444EA0A047E
:104C10004EF8044B53F8044B634524FA02FAF0D3E0
:104C2000C1F804A0BAF1000F01D008F10205FB6C35
:104C30007268013D53F822100561316043F822602B
:104C4000BDE8F087043953F8042B9C4541F8042F44
:104C5000F9D8ECE71946C7E730B40B690546006997
:104C6000C01A0FD19B001435143119442B4401E0B4
:104C70009D4207D253F8044D51F8042D9442F7D0C9
:104C800002D3012030BC70474FF0FF30FAE700BF7D
:104C90002DE9F84F0C6913698946E41A002C9246F5
:104CA00001F1140702F1140B14D19B00FA185B44B4
:104CB00001E0BA4262D952F8045D53F8041D8D42F6
:104CC000F7D009D23A464B465F46D14693469A46BC
:104CD000012401E0F6DB0024D9F80410FFF7A0FD61
:104CE0005E464FF00008D9F810C0DAF810303D46A3
:104CF000C4600BEB830E07EB8C0700F1140455F82E
:104D0000049B56F8042B1FFA89F343441FFA82F8D8
:104D1000120CA3EB0803C2EB194202EB23429BB235
:104D200043EA0243B64544F8043B4FEA2248E6D83A
:104D3000AF4217D9A6462E4656F8043B99B24144D5
:104D40000A1402EB134289B241EA0243B7424EF819
:104D5000043B4FEA2248EFD8ED432F4427F00307E6
:104D600004373C44043C2BB954F8043D0CF1FF3C9F
:104D7000002BF9D0C0F810C0BDE8F88F0021FFF774
:104D80004FFD01220023C0E90423BDE8F88F00BFD6
:104D90002DE9F0411C4682B00121DDE9086590460D
:104DA000FFF73EFD2346C4F30A540746C3F313033B
:104DB0000CB143F48013B8F1000201931ED002A895
:104DC00040F8082DFFF7BEFD70BBDDE900237A61D6
:104DD000002B0CBF01210221BB613961CCB907EB6B
:104DE0008103A0F2324030601869FFF78BFDC0EB01
:104DF00041102860384602B0BDE8F08101A8FFF7F5
:104E0000A1FD0122019B11462030C7E90423002C9B
:104E1000E5D0A4F233430344C0F135003360286089
:104E2000384602B0BDE8F081019BC0F12002009934
:104E300003FA02F20A43C34001937A61C8E700BF54
:104E4000F8B517460022DFF858C021F0004363454B
:104E500004460D463A601EDC844653EA0C0C1AD018
:104E6000B3F5801F0E4609DA00220C4BFBF7A2FBBC
:104E70006FF0350204460E4621F0004326F0FF464F
:104E80001B1526F4E006A3F2FE3346F07F551344CB
:104E900045F400153B6020462946F8BD000050430C
:104EA000FFFFEF7F38B50023064C05460846236018
:104EB000FCF7C2F9431C00D038BD2368002BFBD09F
:104EC0002B6038BD3C0A002020F0030110F00300E5
:104ED000C0F1000051F8043B00F1040C4FEACC0C87
:104EE0006FF000021CBF22FA0CF213434FF0010CCA
:104EF0004CEA0C2C4CEA0C4CA3EB0C0222EA030209
:104F000012EACC1204BF51F8043B0430F4D0C2F1D1
:104F1000000102EA0102B2FA82F2C2F11F0200EBC2
:104F2000D200704740EA01039B0770B42AD1032ADC
:104F300028D90C460346214654F8046BA6F10135E6
:104F400025EA060515F0803F06D1043A032A43F806
:104F5000046B2146EFD89AB10C78013A1C700133EA
:104F60003CB16AB111F8014F013A03F8014B002C32
:104F7000F7D12AB100211A4403F8011B9342FBD157
:104F800070BC70470346E6E72DE9F04F936883B0A5
:104F90009046002B6CD0176882460C46086808378C
:104FA0008D6842E0A38913F4906F2DD0D4E90415E5
:104FB00005EB4505A0EB010B05EBD575701C6D10DD
:104FC0005844A8422A4684BF05462A465B0536D582
:104FD00011465046FFF740F900283AD05A46216959
:104FE0000190FBF7B5F8A289019B22F4906242F090
:104FF0008002A281A5EB0B0203EB0B006561B346B7
:10500000354623612060A2605A46494600F0E2F826
:10501000D8F80830A2682068551B58449E1BA5602C
:105020002060C8F808601EB3083757E90296AB46FF
:10503000002EF9D0AE42B5D23546B346E4E750462D
:1050400000F02AF903460028D4D121695046FEF722
:10505000FDFF0C2300224FF0FF30CAF80030A38977
:1050600043F04003A381C8E9012203B0BDE8F08FFB
:105070000020C8F8040003B0BDE8F08F2DE9F84324
:105080002B4D0646286898460F469146FFF7E0F8F4
:10509000284B1C68D4F84831002B3DD05A681F2A91
:1050A0000DDC02F1010C16BB0232C3F804C0286803
:1050B00043F82270FFF7CEF80020BDE8F8831E4BBE
:1050C0007BB34FF4C870AFF30080034648B30020B1
:1050D000D4F848114FF0010CC3E900100246C4F89F
:1050E0004831C3F88801C3F88C01002EDCD00121BF
:1050F00003EB8204C4F88890D3F8880191400843F8
:10510000022EC3F88801C4F80881CDD1D3F88C01F0
:105110000143C3F88C11C7E704F5A673C4F84831FE
:10512000BCE72868FFF796F84FF0FF30C5E700BFEF
:1051300040040020C05600080000000010B502FB2B
:1051400001F1FFF789F80446E8B150F8042C22F089
:105150000302043A242A1FD8132A16D900231B2A33
:10516000C0E900331DD9242AC0E9023308BFC0E9D1
:1051700004334FF0000314BF00F1100200F11802D5
:10518000C2E900339360204610BD0246002320464A
:10519000C2E90033936010BD0021FCF7C5F9204639
:1051A00010BD00F10802F1E782B049B15AB16BB10C
:1051B00013780B601278101C18BF012002B07047E2
:1051C00001A9002AF3D1104602B070476FF0010028
:1051D000F4E700BF8842F0B40DD98B1883420AD996
:1051E000841832B1224613F8014D994202F8014D5C
:1051F000F9D1F0BC70470F2A48D940EA01039B0758
:1052000046D1A2F110031B0901F1200707EB031798
:1052100001F1100400F1100554F8106C103445F839
:10522000106C54F81C6C103545F81C6C54F8186C54
:1052300045F8186C54F8146CBC4245F8146CEBD16A
:10524000013302F00F051B01032D1944034421D93A
:105250000F462C461E1F57F804CB043C032C46F87F
:1052600004CFF8D82C1F24F0030404342344214431
:1052700002F00302002ABCD0013B0A4411F8014BA2
:10528000914203F8014FF9D1F0BC70470346F1E7B2
:105290000346F1E72A46EDE72DE9F04F924683B049
:1052A000002900F0A1800D4680460AF10B04FFF7AB
:1052B000ABFA55F8042C162C22F00306A5F10807CA
:1052C0003ED810242146A2453FD88E4207EB06095E
:1052D00074DAC84B9868484500F0AA80D9F80400F1
:1052E00020F001034B445B68DB0740F18380D20769
:1052F00034D551464046FEF7AFFF8246E0B155F83F
:10530000043CA0F1080223F001033B44934200F067
:105310000E81321F242A00F21481132A296800F218
:10532000FB8003462A4619605168596092689A606A
:1053300029464046FEF78AFE4046FFF76BFA4FE0EB
:1053400024F00704002C2146BDDA4FF0000A0C239C
:105350005046C8F8003003B0BDE8F08F55F8083C5F
:10536000A7EB030BDBF8042022F00302B3188B42F7
:10537000BFDBDA46DBF80C105AF8080F321F242A7C
:10538000C1600BEB0309886000F2BE80132A296814
:1053900040F2D580CBF8081069681B2ACBF80C10B6
:1053A000A96800F2E5800BF1100208351160696808
:1053B0001E465160AB685F46554693607A68331B62
:1053C0000F2B02F0010222D832437A60D9F8043060
:1053D00043F00103C9F804304046FFF71BFAAA4620
:1053E000504603B0BDE8F08F114603B0BDE8F04F62
:1053F000FEF732BF20F0030033188B4263DBD9E99C
:1054000002121E46CA6007EB03099160D6E73919FC
:10541000224343F001037A604B60D9F8043008312D
:1054200043F00103C9F804304046FEF70FFED3E70E
:10543000D0F8049004F1100029F00309B14481452B
:1054400080F28380D2073FF554AF55F8082CA7EBC4
:10545000020BDBF8042022F003029144484585DC6E
:10546000DA46DBF80C105AF8080F321F242AC16004
:10547000886000F2AB80132A296840F2A580CBF83F
:10548000081069681B2ACBF80C10A96800F2A580E7
:105490000BF110020835116069685160A9689160CC
:1054A000A9EB04020BEB040142F0010299604A608F
:1054B000DBF80430404603F001031C43CBF8044002
:1054C000FFF7A8F98CE7D3073FF513AF55F8083C71
:1054D000A7EB030BDBF8042022F00302104483192E
:1054E0008B42FFF643AFD9E90201DA46C16088601A
:1054F0005AF8080FDBF80C10321F242AC1600BEB9E
:10550000030988607FF642AF294650461E465F4633
:10551000FFF760FE554651E701606B681B2A436048
:1055200032D805F1080200F10803A968FBE650F83B
:10553000043C23F003031E4407EB06093EE75246F2
:1055400034E72946FFF746FEF2E6A9EB04092744B3
:1055500049F001029F607A6055F8043C404603F030
:1055600001031C4345F8044CFFF754F9AA4637E7FA
:10557000CBF81010E968242ACBF8141029690FD051
:105580000BF11802103511E7AB68242A8360EB6831
:10559000C3600FD005F1100200F110032969C2E6C3
:1055A000CBF8181069690BF12002CBF81C10A9691F
:1055B0001835FBE62B6905F118020361696900F1F2
:1055C00018034161A969AEE6524664E72946504690
:1055D0000193FFF7FFFD019B62E7CBF81010E9682C
:1055E000242ACBF81410296906D00BF118021035C3
:1055F00051E700BF44040020CBF8181069690BF193
:105600002002CBF81C10A969183544E719B1FF2A0C
:1056100003D80A700121084670478A234FF0FF31F2
:105620000360F8E7F8B500BFF8BC08BC9E467047B9
:0C563000F8B500BFF8BC08BC9E467047EF
:1056400053746172742073656E740000536C6176DC
:105650006520616464726573732073656E74000005
:10566000536C617665206164647265737320666F44
:1056700072206279746520726561642073656E744E
:1056800000000000627974652072656164000000AA
:1056900049324320496E697420446F6E65000000F2
:1056A000256400004D5055363035302044726976FF
:1056B00065723A2057484F20414D2049203A20003A
:1056C00018000020494E4600696E66004E414E00AB
:1056D0006E616E00303132333435363738396162BD
:1056E000636465660000000030313233343536378C
:1056F000383941424344454600000000286E756C2D
:105700006C290000300000002020202020202020D4
:105710002020202020202020303030303030303009
:105720003030303030303030496E66696E697479AF
:10573000000000004E614E000080E03779C3414315
:10574000176E05B5B5B89346F5F93FE9034F384DE7
:10575000321D30F94877825A3CBF737FDD4F157593
:10576000000000000000F03F0000000000002440A6
:1057700000000000000059400000000000408F4081
:10578000000000000088C34000000000006AF840EC
:105790000000000080842E4100000000D012634110
:1057A0000000000084D797410000000065CDCD4186
:1057B000000000205FA00242000000E87648374267
:1057C000000000A2941A6D42000040E59C30A24205
:1057D0000000901EC4BCD64200003426F56B0C437A
:1057E0000080E03779C3414300A0D8855734764321
:1057F00000C84E676DC1AB43003D9160E458E14382
:10580000408CB5781DAF154450EFE2D6E41A4B44F6
:1058100092D54D06CFF08044F64AE1C7022DB5443B
:10582000B49DD9794378EA440500000019000000CE
:105830007D00000043000000504F53495800000015
:105840002E000000002020202020202020202828BA
:105850002828282020202020202020202020202030
:105860002020202020881010101010101010101070
:1058700010101010100404040404040404040410A0
:10588000101010101010414141414141010101012E
:1058900001010101010101010101010101010101F8
:1058A0001010101010104242424242420202020204
:1058B00002020202020202020202020202020202C8
:1058C0001010101020000000000000000000000078
:1058D00000000000000000000000000000000000C8
:1058E00000000000000000000000000000000000B8
:1058F00000000000000000000000000000000000A8
:105900000000000000000000000000000000000097
:105910000000000000000000000000000000000087
:105920000000000000000000000000000000000077
:105930000000000000000000000000000000000067
:0859400000000000000000005F
:085948004CB2FF7F01000000DA
:085950000530000835010008D4
:045958001101000831
:10595C0000A24A0400000000000000000102030441
:10596C0006070809180000200000000004030020AE
:10597C006C030020D4030020000000000000000095
:10598C00000000000000000000000000000000000B
:10599C0000000000000000000000000000000000FB
:1059AC0000000000000000000000000000000000EB
:1059BC0000000000000000000000000000000000DB
:1059CC0000000000000000000000000000000000CB
:1059DC0000000000000000000000000000000000BB
:1059EC0000000000000000000000000000000000AB
:1059FC00000000000000000000000000000000009B
:105A0C00000000000000000000000000000000008A
:105A1C0001000000000000000E33CDAB34126DE627
:105A2C00ECDE05000B000000000000000000000090
:105A3C00000000000000000000000000000000005A
:105A4C00000000000000000000000000000000004A
:105A5C00000000000000000000000000000000003A
:105A6C00000000000000000000000000000000002A
:105D9C00180A00200000000000000000440400204D
:105DAC00440400204C0400204C0400205404002027
:105DBC00540400205C0400205C04002064040020D7
:105DCC00640400206C0400206C0400207404002087
:105DDC00740400207C0400207C0400208404002037
:105DEC00840400208C0400208C04002094040020E7
