:020000040800F2
:1000000000500020D50500081D0600081D06000848
:100010001D0600081D0600081D060008000000005F
:100020000000000000000000000000001D060008A5
:100030001D060008000000001D0600081D0600083F
:100040001D0600081D0600081D0600081D06000804
:100050001D0600081D0600081D0600081D060008F4
:100060001D0600081D0600081D0600081D060008E4
:100070001D0600081D0600081D0600081D060008D4
:100080001D0600081D0600081D0600081D060008C4
:100090001D0600081D0600081D0600081D060008B4
:1000A0001D0600081D0600081D0600081D060008A4
:1000B0001D0600081D0600081D0600081D06000894
:1000C0001D0600081D0600081D0600081D06000884
:1000D0001D0600081D0600081D0600081D06000874
:1000E0001D0600081D0600081D060008000000008F
:1000F0000000000000000000000000000000000000
:0C01000000000000000000005FF808F1A3
:10010C0010B5054C237833B9044B13B10448AFF345
:10011C0000800123237010BDE404002000000000C7
:10012C008407000808B5034B1BB103490348AFF320
:10013C00008008BD00000000E804002084070008CF
:10014C0080B400AF044B1B69034A43F48013136162
:10015C0000BFBD4680BC70470008014080B400AFB2
:10016C00044B1B69034A43F01003136100BFBD46E7
:10017C0080BC70470008014080B500AF274BDB699D
:10018C00264A43F48053D361244B9B69234A43F0A2
:10019C0005039361224B1B68214A43F0084343F447
:1001AC0008031360FFF7DAFF1E4B1B889BB21D4A36
:1001BC0023F040039BB213801A4B1B889BB2194A45
:1001CC0043F010039BB21380164B1B889BB2154A4D
:1001DC0003F002039BB21380124B1B889BB2114A93
:1001EC0023F400639BB213800E4B1B889BB20D4A09
:1001FC0023F080039BB213800A4B1B889BB2094AE5
:10020C0043F401739BB21380064B1B889BB2054AC7
:10021C0003F040039BB2138000BF80BD001002406E
:10022C00000801400030014080B483B000AF0346A9
:10023C00FB7100BF0D4B1B899BB203F00203002B1B
:10024C00F8D00A4BFA7992B29A8100BF074B1B89FE
:10025C009BB203F00103002BF8D0044B9B899BB29B
:10026C00DBB218460C37BD4680BC704700300140ED
:10027C0080B582B000AFFF23FB71FB791846FFF706
:10028C00D3FF034618460837BD4680BD80B500AF86
:10029C00FFF756FF0620FFF7C7FFFFF75FFF00BF12
:1002AC0080BD80B584B000AFF860B9601346FB80A8
:1002BC00FFF7ECFF0220FFF7B7FF0020FFF7B4FFBA
:1002CC000020FFF7B1FF0020FFF7AEFF07E0FB684F
:1002DC001B781846FFF7A8FFFB680133FB60FB880F
:1002EC005A1EFA80002BF2D1FFF72AFF00BF1037FD
:1002FC00BD4680BD80B584B000AFF860B9601346D0
:10030C00FB80FFF71DFF0320FFF78EFF0020FFF798
:10031C008BFF0020FFF788FF0020FFF785FF04E02C
:10032C00FFF7A6FFFB680133FB60FB885A1EFA80BF
:10033C00002BF5D1FFF704FF00BF1037BD4680BD81
:10034C0080B400AF124B9B69114A43F4804343F0D5
:10035C00040393610F4B5B680E4A43F47F63536055
:10036C000D4B9B899BB20C4A43F00C039BB29381BF
:10037C00094B40F22B221A81074B9B899BB2064AF0
:10038C0043F400539BB2938100BFBD4680BC7047C1
:10039C0000100240000801400038014080B500AF59
:1003AC0000F04AF8FFF7CCFFFFF7E6FEA0224FF073
:1003BC0000410648FFF775FF08224FF00041034843
:1003CC00FFF798FF0023184680BD00BF00000020F7
:1003DC0080B500AF154B1B68144A43F00103136042
:1003EC00124B5A681149124B13404B600F4B1B6850
:1003FC000E4A23F0847323F4803313600B4B1B6879
:10040C000A4A23F480231360084B5B68074A23F4E1
:10041C00FE035360054B4FF41F029A6000F078F80E
:10042C00044B4FF000629A6000BF80BD0010024088
:10043C000000FFF800ED00E080B485B000AF0023B1
:10044C00FB600023BB6000237B602C4B5B6803F0DC
:10045C000C03FB60FB68042B07D0082B09D0002B86
:10046C0033D1274B274A1A6033E0254B254A1A60B3
:10047C002FE0224B5B6803F47013BB601F4B5B686F
:10048C0003F480337B60BB689B0C0233BB607B68DE
:10049C00002B06D1BB681C4A02FB03F3184A1360FD
:1004AC0017E0164B5B6803F40033002B06D0BB68D7
:1004BC00154A02FB03F3124A13600AE0BB68114AA7
:1004CC0002FB03F30E4A136003E00D4B0D4A1A6056
:1004DC0000BF0A4B5B681B0903F00F030B4AD35C8C
:1004EC00DBB2FB60064B1A68FB6822FA03F3044A82
:1004FC00136000BF1437BD4680BC7047001002402B
:10050C00A000002000127A0000093D00A400002089
:10051C0080B483B000AF00237B6000233B60284B8A
:10052C005B68274A23F474135360254B5B68244A99
:10053C0043F460135360234B1B68224A43F01003AF
:10054C001360204B1B681F4A23F0070313601D4BDD
:10055C001B681C4A43F002031360194B184A5B6872
:10056C005360174B164A5B685360154B5B68144A13
:10057C0043F480635360124B1B68114A43F0807341
:10058C00136000BF0E4B1B6803F00073002BF9D0F7
:10059C000B4B5B680A4A23F003035360084B5B6800
:1005AC00074A43F00203536000BF054B5B6803F03E
:1005BC000C03082BF9D100BF0C37BD4680BC70472B
:1005CC000010024000200240002103E00B4B5B585E
:1005DC00435004310A480B4B42189A42F6D30A4A4C
:1005EC0002E0002342F8043B084B9A42F9D3FFF790
:1005FC00EFFE00F00FF8FFF7D1FE7047AC070008D4
:10060C0000000020E4040020E40400202405002065
:10061C00FEE7000070B50D4E0D4D761BB61006D0E2
:10062C000024013455F8043B9847A642F9D1094EF1
:10063C00094D00F0A1F8761BB61006D00024013449
:10064C0055F8043B9847A642F9D170BDA0070008A5
:10065C00A0070008A8070008A0070008024B13B168
:10066C00024800F005B87047000000008906000839
:10067C00002301461A46184600F01EB838B50A4C3D
:10068C000A4D641BA4100AD004F18043013B05EB16
:10069C008305013C55F804399847002CF9D1BDE885
:1006AC00384000F06FB800BFAC070008A80700087E
:1006BC00704700BF704700BF2DE9F8432B4D06462D
:1006CC00286898460F469146FFF7F2FF284B1C68A6
:1006DC00D4F84831002B3DD05A681F2A0DDC02F1AA
:1006EC00010C16BB0232C3F804C0286843F8227010
:1006FC00FFF7E0FF0020BDE8F8831E4B7BB34FF4FF
:10070C00C870AFF30080034648B30020D4F84811FA
:10071C004FF0010CC3E900100246C4F84831C3F88D
:10072C008801C3F88C01002EDCD0012103EB82047C
:10073C00C4F88890D3F8880191400843022EC3F87E
:10074C008801C4F80881CDD1D3F88C010143C3F8DA
:10075C008C11C7E704F5A673C4F84831BCE72868C8
:10076C00FFF7A8FF4FF0FF30C5E700BFE004002003
:10077C009C07000800000000F8B500BFF8BC08BCDE
:10078C009E467047F8B500BFF8BC08BC9E46704743
:04079C00B800002081
:0807A0006906000831010008A0
:0407A8000D01000837
:1007AC00AABBCCEE11223344AABBCCEE11223344AB
:1007BC00AABBCCEE11223344AABBCCEE112233449B
:1007CC00AABBCCEE11223344AABBCCEE112233448B
:1007DC00AABBCCEE11223344AABBCCEE112233447B
:1007EC00AABBCCEE11223344AABBCCEE112233446B
:1007FC00AABBCCEE11223344AABBCCEE112233445B
:10080C00AABBCCEE11223344AABBCCEE112233444A
:10081C00AABBCCEE11223344AABBCCEE112233443A
:10082C00AABBCCEE11223344AABBCCEE112233442A
:10083C00AABBCCEE11223344AABBCCEE112233441A
:10084C0000A24A04000000000000000001020304A2
:10085C00060708090000000000000000A4030020A7
:10086C000C040020740400200000000000000000B4
:10087C00000000000000000000000000000000006C
:10088C00000000000000000000000000000000005C
:10089C00000000000000000000000000000000004C
:1008AC00000000000000000000000000000000003C
:1008BC00000000000000000000000000000000002C
:1008CC00000000000000000000000000000000001C
:1008DC00000000000000000000000000000000000C
:1008EC0000000000000000000000000000000000FC
:1008FC0000000000000000000000000000000000EC
:10090C0001000000000000000E33CDAB34126DE688
:10091C00ECDE05000B0000000000000000000000F1
:10092C0000000000000000000000000000000000BB
:10093C0000000000000000000000000000000000AB
:10094C00000000000000000000000000000000009B
:10095C00000000000000000000000000000000008B
:040C8C00000500203F
:04000005080005D515
:00000001FF
